:020000040800F2
:10000000784400206D020008071B0008DF16000876
:10001000051B0008A9070008891E00080000000051
:10002000000000000000000000000000AD0100081A
:10003000AB0700080000000009020008E51C0008EA
:10004000870200088702000887020008870200086C
:10005000870200088702000887020008870200085C
:10006000870200088702000887020008870200084C
:10007000870200088702000887020008870200083C
:1000800087020008870200088702000800000000BD
:1000900000000000000000000000000087020008CF
:1000A000E51D000887020008870200088702000893
:1000B00087020008870200088702000887020008FC
:1000C00087020008870200088702000887020008EC
:1000D000870200088702000887020008000000006D
:1000E000870200088702000887020008000000005D
:1000F000000000000000000000000000870200086F
:10010000000000008702000887020008870200083C
:1001100000000000000000000000000000000000DF
:10012000870200088702000887020008870200088B
:10013000870200080000000000000000000000002E
:10014000000000000000000000000000870200081E
:10015000870200088702000887020008870200085B
:10016000870200088702000800000000000000006D
:10017000000000000000000000000000000000007F
:1001800000000000870200080000000000000000DE
:100190008702000887020008DFF80CD000F0F2FAAE
:1001A000004800475D1F0008784400202C4B196868
:1001B0000868B0E8F04F80F30988BFF36F8F4FF005
:1001C000000080F3118870470000000008480068B4
:1001D000006880F308884FF0000080F3148862B64E
:1001E00061B6BFF34F8FBFF36F8F00DF00BF00BF5B
:1001F00008ED00E0DFF80C00016841F470010160D7
:10020000704700BF88ED00E0EFF30980BFF36F8F08
:10021000134B1A681EF0100F08BF20ED108A20E95A
:10022000F04F106009B44FF0500080F31188BFF315
:100230004F8FBFF36F8F02F011FC4FF0000080F37F
:10024000118809BC19680868B0E8F04F1EF0100F5B
:1002500008BFB0EC108A80F30988BFF36F8F704736
:1002600038000020EFF30580704700000648804703
:1002700006480047FEE7FEE7FEE7FEE7FEE7FEE78B
:10028000FEE7FEE7FEE7FEE7911D00089901000882
:100290002DE9F05F0546002092469B4688460646BB
:1002A000814640241BE0284641464746224600F04E
:1002B00074F953465A46C01A914110D31146184654
:1002C000224600F05BF92D1A67EB01084F462246E3
:1002D0000120002100F052F917EB00094E41201EC9
:1002E000A4F10104DFDC484631462A464346BDE816
:1002F000F09F40EA01039B0703D009E008C9121FE1
:1003000008C0042AFAD203E011F8013B00F8013BCF
:10031000521EF9D27047D2B201E000F8012B491EFB
:10032000FBD270470022F6E710B513460A46044692
:100330001946FFF7F0FF204610BD2DE9FE4F81EA78
:10034000030404F0004421F0004100944FF0000B3E
:1003500023F0004350EA01045ED052EA03045BD06C
:10036000C3F30A54C1F30A552C44A4F2F3340194A4
:10037000A0FB0254C1F3130141F48011C3F3130332
:1003800043F4801301FB024400FB034E840A970AE6
:1003900044EA815447EA8357A4FB076802958D0A13
:1003A00005FB07854FEA932C04FB0C542705029D9F
:1003B0004FEA065847EA1637B5EB08056EEB070C0F
:1003C000870E920E47EA811742EA8312A7FB0201C9
:1003D000B6EB0B0164EB00042B0D43EA0C335E1803
:1003E00044EB1C50DA465146E7FB0201C5F3130407
:1003F0004FEA0B3343EA14534FEA0432019C43EAB9
:100400000603A4F10C040294009CCDE900B400F0B2
:100410001AF903B0BDE8F08F00200146F9E72DE995
:10042000F04D81EA030404F0004B21F0004514462E
:100430004FF0000A23F0004150EA050220D054EAB0
:1004400001021DD0C5F30A570246C5F31303C1F3D9
:100450001300C1F30A5640F4801543F48013A7EB50
:100460000608101BD64608F2FD3873EB050002D3D0
:1004700008F1010801E092185B41B8F1000F03DABE
:1004800000200146BDE8F08D00204FF480110646A3
:1004900084460EE0171B73EB050705D3121B63EBB5
:1004A000050306434CEA010C49084FEA3000921854
:1004B0005B4150EA0107EDD152EA030012D082EA13
:1004C000040083EA0501084305D0101BAB4106D2A6
:1004D0000122002306E000224FF0004302E06FF00B
:1004E000010253101AEB06004CEB085110EB0A0006
:1004F00041EB0B01BDE8F04D00F096B80EB5C10F11
:1005000080EAE0700844CA07002140F233438DE8D6
:100510000E000A460B4600F096F803B000BD00F04E
:10052000004230F000400AD0C10D01F56071C0F307
:10053000160042EA0151C2084007114370470020EB
:100540000146704701F0004330B421F0004150EA09
:10055000010206D00A0DA2F56072C1F31301002A50
:1005600002DC30BC00207047440F44EAC104C100E3
:10057000E01830BC00EBC25000F01FB8202A04DBAA
:10058000203A00FA02F1002070479140C2F12003A6
:1005900020FA03F3194390407047202A04DB203AE5
:1005A00021FA02F00021704721FA02F3D040C2F193
:1005B000200291400843194670470029A8BF7047A0
:1005C000401C490008BF20F00100704710B4B0FA89
:1005D00080FC00FA0CF050EA010404BF10BC704724
:1005E00049B1CCF1200421FA04F411FA0CF118BF3E
:1005F000012121430843A3EB0C01CB1D4FEA00610D
:100600004FEA102042BF002010BC704700EBC350DF
:1006100010440029A4BF10BC7047401C490008BF0B
:1006200020F0010010BC704710B5141E73F10004D7
:1006300008DA401C41F1000192185B411A4301D1D4
:1006400020F0010010BD2DE9F04D92469B4611B1FE
:10065000B1FA81F202E0B0FA80F220329046FFF760
:100660008DFF04460F4640EA0A0041EA0B0153465B
:100670005A46084313D0114653EA010019D0C8F175
:1006800040025046FFF789FF05460E465046594640
:100690004246FFF773FF084305D0012004E02046DF
:1006A0003946BDE8F08D0020054346EAE0762C434C
:1006B00037430A986305E40AA0EB08000022FD0A0C
:1006C00044EA47540A3002D500200146E9E7010513
:1006D00010196941DDE9084500196941BDE8F04D8F
:1006E000A2E72DE9F04D00231A461B1A8A4103DBCD
:1006F00000200146BDE8F08DC1F30A52C1F3130199
:1007000041F480154FF0000BD10702D100186D4164
:10071000521E0027044640F2FF11384601EB620AE0
:100720003E468046024600204FF48011FFF735FF19
:10073000C2197141BB1846EB0100B4EB030C75EB19
:10074000000C04D3E41A65EB000517460E46241985
:1007500008F101006D4180463428E3DDF91946EBCC
:100760000600091BA84103D24FF0FF32134601E0F7
:10077000002213461BEB070046EB0A51BDE8F04D83
:10078000FFF752BF064C074D06E0E06840F001035A
:1007900094E8070098471034AC42F6D3FFF700FD09
:1007A000F835000818360008FEE770472DE9F84FC5
:1007B000DFF860B100224FF001084FF0030A4FF05C
:1007C0000F090BF1040E00BF0B6808FA02F4234076
:1007D000A3426ED14D68022D01D0122D0ED1D50845
:1007E00000EB850CDCF820505607F70E09FA07F6E7
:1007F000B5430E69BE402E43CCF820600668550014
:100800000F790AFA05FC07F0030726EA0C06AF4049
:10081000374307604E68012E05D0022E03D0112EFB
:1008200001D0122E0ED18668CF6826EA0C06AF40A2
:10083000374387604668A6430C79C4F3001494409C
:1008400034434460C6688C6826EA0C06AC403443E6
:10085000C4604C68E40056D52F4C256845F48045AB
:100860002560246822F0030504F4804400942B4C96
:100870002E19D6F8084895072F0F09FA07F5AC434B
:10088000274DA84201D1002515E0264DA84201D1EF
:10089000012510E0244DA84201D102250BE0234D93
:1008A000A84201D1032506E0214DA84202D104252A
:1008B00001E028E00725BD402543C6F80858DBF8CD
:1008C00000405D464E689C43F60300D51C432C60F7
:1008D000DEF8004075464E689C43B60300D51C43C5
:1008E0002C600C4D08352C684E689C43F60200D5F0
:1008F0001C432C60074D0C352C684E689C43B60297
:1009000000D51C432C60521C102AFFF45DAFBDE8DB
:10091000F88F0000003C01404438024000300140A4
:10092000000002400004024000080240000C0240A7
:1009300000100240426931EA020200D109048161DB
:1009400070470AB1816170470904FBE7014880687C
:10095000704700002800002070B504001BD094F8F8
:100960003D00002520B984F83C50204600F042FAB2
:10097000242084F83D002068016821F00101016015
:1009800000F0DEFB4D4A6168914201D84C4900E01D
:100990004C49884201D2012070BD4B492368B0FB0D
:1009A000F1F15E6826F03F060E435E606368934295
:1009B00006D94FF4967359434FF47A73B1FBF3F1B0
:1009C0002368491C1E6A26F03F063143196261689C
:1009D000914210D84900401EB0FBF1F2521CC2F304
:1009E0000B02042A01D2042022E0B0FBF1F0401CEB
:1009F000C0F30B001CE0A368F3B301EBC10202EBF0
:100A00000116421EB2FBF6F2521C42F4804212055D
:100A100049D093B301EBC10202EB0111401EB0FBC0
:100A2000F1F0401CC0F30B0040F4804040F4004063
:100A30002168CA694CF6FF739A431043C861D4E930
:100A40000701084321680A6822F0C00210430860C9
:100A5000D4E9030101432068826848F2FF339A43D6
:100A600011438160D4E9050108432168CA6822F076
:100A7000FF021043C86001E00EE016E02068016844
:100A800041F0010101602564202084F83D002563C8
:100A900084F83E50002070BD01EB4106421EB2FBBF
:100AA000F6F2521CB3E70120C2E701EB4101401E00
:100AB000B0FBF1F0401CC0F30B00B7E7A0860100CB
:100AC00080841E0000093D0040420F002DE9FF4FC9
:100AD00083B09A46DDE9119793460446DDF84080DD
:100AE000FFF734FF054694F83D00202870D1192304
:100AF000012271492046009500F0ECFE0028F5D156
:100B000094F83C00012863D0012084F83C00206860
:100B10000168C90703D1016841F001010160206843
:100B2000016821F400610160222084F83D0040202A
:100B300084F83E0000262664C4F82480A4F82A9095
:100B4000608D20855D48E062CDE9007553465A46C8
:100B50002046049900F0DBFD00287CD1208DD0B127
:100B6000012821D00228206824D0416980690090A2
:100B7000208D032869D801282BD0514902283B46F3
:100B80004FF00002009559D08846204600F0A2FEA2
:100B9000002860D13CE020684169816900910168CA
:100BA00041F40071016077E02068016821F4806100
:100BB0000160F0E7016821F480610160206801684C
:100BC00041F400610160206841698069009063E040
:100BD0006FE02A463946204600F0FBFE98BB2068AD
:100BE0000069616A08704EE02068016841F4007194
:100BF000016020680069616A0870606A401C606278
:100C0000218D491E2185618D491E6185216838E04D
:100C10002068016821F48061016020680069616AD0
:100C20000870606A401C6062208D401E2085608DC7
:100C3000401E60853B46002241460095204600F05C
:100C400049FE00B9D0E706E0FFE72A4639462046CC
:100C500000F0BFFE18B1012007B0BDE8F08F20689A
:100C60000069616A0870606A401C6062218D491EDB
:100C70002185618D491E618521684A69D2435207E9
:100C80000AD409690170606A401C6062208D401EB0
:100C90002085608D401E6085208D00287FF468AF20
:100CA000202084F83D0084F83E6084F83C600020F9
:100CB000D2E70220D0E70000020010000000FFFF92
:100CC000040001002DE9FF4F83B09A46DDE911973A
:100CD00093460446DDF84080FFF738FE054694F859
:100CE0003D0020287FD1192301224049204600954C
:100CF00000F0F0FD002876D194F83C00012872D075
:100D0000012084F83C0020680168C90703D101680C
:100D100041F0010101602068016821F40061016077
:100D2000212084F83D00402084F83E0000262664FF
:100D3000C4F82480A4F82A90608D20852C48E062B5
:100D4000CDE9007553465A462046049900F052FDFD
:100D500070B930E02A463946204600F06DFE58B1A1
:100D6000206C042804D12068016841F400710160FE
:100D7000012007B0BDE8F08F606A21680078086143
:100D8000606A401C6062218D491E89B22185628D96
:100D9000521E628522685369DB435B070BD469B13D
:100DA00000781061606A401C6062208D401E2085C2
:100DB000608D401E6085208D0028CBD12A463946A3
:100DC000204600F061FD0028CAD154F83D0B0168AF
:100DD00041F400710160202004F81E09E67766776F
:100DE0000020C6E7FFE70220C3E700000200100072
:100DF0000000FFFF10B586B0044614216846FFF7D7
:100E000091FA14492068884221D11348016841F0C1
:100E1000020101600068694600F0020005904FF48D
:100E20001070009012200190012002900320039086
:100E3000042004900948FFF7B9FC07481030016806
:100E400041F400110160006800F40010059006B044
:100E500010BD000000540040303802400004024041
:100E600002488168027811448160704728000020A0
:100E70000B4810B5016841F400710160016841F44C
:100E800080610160016841F480710160032000F01D
:100E90008DF8002000F006F800F03EF8002010BDAC
:100EA000003C024010B5014688B00022182000F036
:100EB0005DF8182000F04CF813480024016841F454
:100EC00080310160006805A900F480300690684612
:100ED00000F016F900F044F90C490D4AB0FBF1F1AD
:100EE0000C48491E026040F2E732C0E90324C0E921
:100EF000011400F005FB10B1012008B010BD054839
:100F000000F01AFBF9E700004438024040420F00AD
:100F100000400140440300200C4882B0016841F4C5
:100F200080410160006800F4804000900748001F85
:100F3000016841F0805101600068002200F080509B
:100F400000900F21901E02B000F010B8443802400B
:100F5000002809DB00F01F020121914040098000B8
:100F600000F1E020C0F8001170470000F0B40E4B13
:100F70001B680C46C3F30223C3F10705042D00D9F7
:100F80000425191D072901D2002300E0DB1E0126DC
:100F900006FA05F1491E214099409E40761E1640F2
:100FA0003143F0BC00F071BF0CED00E0064900F0E9
:100FB000070208684FF6FF03184040EA0220034A80
:100FC00010430860704700000CED00E00000FA05D7
:100FD0002DE9F0470E46050065D0DFF81481D8F8FA
:100FE0000000F7B200F00F00B04207D288F800709E
:100FF000D8F8000000F00F00B04254D128683D4CF2
:10100000810712D5400703D5206840F4E0502060E6
:101010002878000703D5206840F4604020602068ED
:10102000A96820F0F000084320602878C0072DD080
:10103000304968680839012812D0022813D00328E3
:1010400011D00968890700292DDA216821F00301F0
:1010500001432160FFF77AFC814641F2883A0EE0B5
:1010600009688903EFE709688901ECE7FFF76EFC7F
:10107000A0EB0901514502D90320BDE8F0872068A3
:10108000696800F00C00B0EB810FEFD1D8F80010C8
:10109000404601F00F01B14207D90770006800F027
:1010A0000F00B04201D00120E7E72878400705D5BE
:1010B0002068E96820F4E0500843206028780007A1
:1010C00006D52068296920F4604040EAC10020600C
:1010D00000F056F82168084AC1F30311515CC8407A
:1010E000064908600020FFF7DDFE0020C5E700008C
:1010F000003C024008380240C83500083400002097
:101100000F2202600C4A136803F003034360136864
:1011100003F0F0038360136803F4E053C3601268C4
:101120004FF4E05303EAD20202610448006800F081
:101130000F0008607047000008380240003C024081
:101140000448054900680968044AC1F38221515CDA
:10115000C84070473400002008380240D8350008E5
:101160000448054900680968044AC1F34231515CEA
:10117000C84070473400002008380240D8350008C5
:10118000154810B5006810F00C02144813D0411037
:10119000042A0FD0082A0ED10F4C241F226823687E
:1011A00002F03F025B0207D52068C0F38810A0FB65
:1011B000010106E0084610BD2168C1F38811A1FBBA
:1011C00000010023FFF764F82168C1F30141491CC5
:1011D0004900B0FBF1F010BD083802400024F400D3
:1011E0002DE9F84F050076D02878DFF8F8B2BE4C2C
:1011F000C00749D0DBF800105846C1F3810101292E
:1012000008D00068C0F3810002280AD1201D0068C0
:10121000400206D52068800336D568680028E2D0F1
:1012200032E06868B0F5803F10D0B0F5A02F20689C
:1012300010D020F480302060206820F480202060CE
:101240006868A0B1FFF782FB06460CE0206840F416
:101250008030F4E740F480202060F7E7FFF776FB6A
:10126000801B642873D820688003F7D50CE0FFF753
:101270006DFB064605E000BFFFF768FB801B642896
:10128000F0D820688003F7D42878DFF860828007E0
:101290004FF000093ED5DBF80010584611F00C0F56
:1012A00009D00068C0F3810002280BD18D48001FCF
:1012B0000068400206D42068800715D5E868012838
:1012C00009D111E0E868B8B10120C8F80000FFF7C3
:1012D0003DFB064605E002E1FFF738FB801B0228D4
:1012E000C0D820688007F7D52068296920F0F80069
:1012F00040EAC10020600DE0C8F80090FFF726FB2F
:10130000064604E0FFF722FB801B02281FD8206856
:101310008007F7D42878000722D5724E744869698F
:101320006C3671B101210160FFF710FB074604E044
:10133000FFF70CFBC01B022809D830688007F7D5DF
:101340000EE0C0F80090FFF701FB074605E083E0E0
:10135000FFF7FCFAC01B02287ED830688007F7D45C
:101360002878400768D5DFF87CA100270AF1380A01
:10137000DAF80000C0000BD4DAF8001041F0805118
:10138000CAF80010DAF80000012700F08050009041
:10139000584E3068C00510D4306840F4807030601A
:1013A000FFF7D4FA009005E0FFF7D0FA0099401A51
:1013B000022851D83068C005F6D54A4EA86868366C
:1013C00001280FD00528306810D020F001003060CF
:1013D000306820F004003060A868B8B1FFF7B6FAB2
:1013E00000900FE0306840F00100F4E740F00400A6
:1013F0003060F7E7FFF7AAFA0099411A41F2883006
:10140000814264D830688007F4D50EE0FFF79EFA79
:10141000009007E0FFF79AFA0099411A41F28830EC
:10142000814254D830688007F4D42FB1DAF8001024
:1014300021F08051CAF80010A869C0B3DBF8001091
:10144000C1F3810102294AD00228484607D0C8F8D2
:101450006000FFF77BFA00E039E005463AE04746D6
:10146000C8F86000FFF772FA064604E0FFF76EFA6C
:10147000801B02282BD820688001F7D4D5E907010A
:101480000843A96A1C4A490802EB01416A6A41EA19
:101490008211084395F82C1040EA01611148001FA1
:1014A000016001203866FFF751FA054605E014E0B7
:1014B000FFF74CFA401B022809D820688001F7D5B5
:1014C0000BE000BFFFF742FA401B022802D90320BD
:1014D000BDE8F88F20688001F4D40020F8E70120EF
:1014E000F6E700000838024000380240000047429A
:1014F000800E4742007000400000FFFF70477047B9
:1015000010B5040003D094F83D0010B107E00120AD
:1015100010BD002084F83C00204600F00CF80220AA
:1015200084F83D00211D206800F062FC012084F851
:101530003D00002010BD70470168CA6842F00102FA
:10154000CA600068816801F00701062903D00168BC
:1015500041F00101016000207047704770B50446FA
:10156000006801694FF00005C943890715D4C168B7
:10157000C943890711D4E91E016101202077206841
:1015800080698007204602D0FFF7E7FF04E000F003
:1015900098F8204600F096F8257720680169C9433D
:1015A000490717D4C168C943490713D46FF0040130
:1015B0000161022020772068806910F4407F204676
:1015C00002D0FFF7CAFF04E000F07BF8204600F0ED
:1015D00079F8257720680169C943090716D4C168DD
:1015E000C943090712D46FF0080101610420207774
:1015F0002068C0698007204602D0FFF7AEFF04E0F4
:1016000000F05FF8204600F05DF82577206801695A
:10161000C943C90617D4C168C943C90613D46FF0BA
:1016200010010161082020772068C06910F4407F14
:10163000204602D0FFF791FF04E000F042F8204678
:1016400000F040F8257720680169C943C90708D12F
:10165000C168C943C90704D1891E0161204600F051
:1016600033F820680169C943090609D4C168C94330
:10167000090605D46FF0800101612046FFF73EFFA7
:1016800020680169C943490609D4C168C9434906AC
:1016900005D46FF040010161204600F01FF820687A
:1016A0000169C94389060BD4C168C943890607D4B7
:1016B0006FF0200101612046BDE87040FFF71FBFB9
:1016C00070BD70477047000000680349884201D12F
:1016D000FFF7C6BB70470000004001407047FEE7BF
:1016E00001684A69D24352050FD46FF480624A619F
:1016F000002140F8301F202242738173026942F0BA
:1017000004020261017301207047002070472DE937
:10171000F84F0446006889460B9D016898461746B5
:1017200041F4806101602068016841F480710160CA
:1017300000954FF0011A0022514620460A9B00F006
:10174000C9F8002853D1216809F0FE0008610AF1A8
:10175000010B2B46594620460A9A00F0EFF8F0BBE1
:1017600020684169806900902A4620460A9900F065
:1017700063F940B1206C042839D12068016841F434
:101780000071016033E0FEB2B8F1010F09D02168A9
:10179000380A08612A4620460A9900F04DF90028C7
:1017A000E8D1206806612A4620460A9900F044F9EB
:1017B0000028DFD12068016841F480710160009544
:1017C0000022514620460A9B00F084F838B921686F
:1017D00009F0FF0040F0010008612B4600E006E040
:1017E000594620460A9A00F0A9F8002800D00120A6
:1017F000BDE8F88F2DE9F843044600680D46DDE9A1
:10180000089701689846164641F4807101604B467E
:1018100000224FF001112046009700F05BF8E0B97C
:10182000216805F0FE0008613B464A4615492046FE
:1018300000F084F888B920684169806900903A46D0
:101840004946204600F0F8F850B1206C042804D135
:101850002068016841F4007101600120BDE8F8834F
:10186000F5B2B8F1010F09D02168300A08613A4693
:101870004946204600F0E0F80028E6D120680561DE
:101880000020EBE70200010070B516460D46044645
:101890000DE02046FFF724FF08B1012070BD681C51
:1018A00005D0FFF753F8801BA84207D835B1206850
:1018B0004069C0434007ECD4002070BD002044F8CC
:1018C000300F20216173A073216941F02001216153
:1018D0002073E2E72DE9F0471E4690460D46044688
:1018E000C1F30747DDF8209008E0701C06D0FFF731
:1018F0002DF8A0EB0900B0420FD876B12068012F77
:1019000018D0806925EA00000004000C14D00021E2
:101910004145EAD00020BDE8F087002044F8300FB0
:1019200020216173A073216941F02001216120739E
:101930000120F0E74069E5E70121E9E72DE9F047FB
:101940009A4691460E46044600254FF02008C1F302
:10195000074725E020684069C043400514D420684B
:10196000016841F40071016021686FF48060486192
:10197000256384F83D8084F83E50206C40F00400DC
:10198000206484F83C501FE0B9F1FF3F08D0FEF717
:10199000DDFFA0EB0A0149450CD8B9F1000F09D0D1
:1019A0002068012F13D0806926EA00000004000C93
:1019B0000BD0CFE744F8305F84F80D80A573206921
:1019C00040F02000206125730120BDE8F0874069C8
:1019D000EAE72DE9F041002590460E46044620270F
:1019E00017E04069C043C0060CD454F8301B6FF0B8
:1019F0001000486144F810596777A577206A206283
:101A0000257717E0FEF7A2FFA0EB0800B04208D848
:101A10003EB120684169C9434906E2D40020BDE8CF
:101A2000F08144F8305F6773A573206940F02000AF
:101A3000206125730120F2E770B516460D46044675
:101A40000DE02046FFF74CFE08B1012070BD681C78
:101A500005D0FEF77BFF801BA84207D835B1206870
:101A60004069C0430006ECD4002070BD002044F85B
:101A7000300F20216173A073216941F020012161A1
:101A80002073E2E770B586B014216846FEF74AFC81
:101A90001A480024016841F004010160016801F066
:101AA00004010591016841F080010160016801F0C5
:101AB00080010591016841F008010160016801F0B1
:101AC00008010591016841F00201016000680C4EB7
:101AD00000F002004FF47045059000222946304680
:101AE000FEF72FFF01200095CDE90104694630463D
:101AF0000394FEF75BFE06B070BD00003038024074
:101B0000000C0240FEE770472DED0A8B84B0572091
:101B1000012503AE64248DF80C000096CDE9015434
:101B20002B46202232215448FFF7CCF808208DF8AC
:101B30000C000096CDE901540123222232214E48A7
:101B4000FFF7C0F8DFF834A1A1469FED4DCB9FED24
:101B50004EBB4FF4704B4FF4FA77AAF1200800BF48
:101B60004FF0FF314446D8F81C0000F07BFAB0EE8D
:101B70004C8AF0EE6C8AB0EE4B9AF0EE6B9AA0466F
:101B80000621CDE900A155460123A822CDF80890F1
:101B900032213948FEF79AFFB5F90000A8F8000095
:101BA000B5F90260A8F80260B5F904504446A8F8F7
:101BB0000450FEF7A3FC53EC182BFEF7BEFB53ECCE
:101BC000192BFEF72CFCFEF7BDFC0AEE900A3046FE
:101BD000C4ED02AAFEF792FC53EC182BFEF7ADFB06
:101BE00053EC192BFEF71BFCFEF7ACFC0AEE100AB7
:101BF000284684ED03AAFEF781FC53EC182BFEF770
:101C00009CFB53EC192BFEF70AFCFEF79BFC2AEE1B
:101C1000AA0A00EE900AC4ED040A0AEE0A0A00EECF
:101C2000A00A10EE100AFEF77AFC41EC100B00F04F
:101C30003CF951EC100BFEF785FC154E04460122D1
:101C40005D4659463046FEF77CFE384600F0CEF938
:101C5000002229463046FEF774FE384600F0C6F9E9
:101C6000B4F17C5F8CDCD8F81C0000F0D3F90120C3
:101C700000F0BCF974E700009C0000202000002068
:101C8000000000000000004000000000C0FFDF4036
:101C9000000C0240114E124F4FF0FF384FF47045C8
:101CA0004146F86900F0DEF9002429463046FEF787
:101CB00041FE322000F09AF929463046FEF73AFEFE
:101CC000322000F093F9641C962CEEDBF86900F0EA
:101CD000A1F9012000F08AF9E2E70000000C0240BF
:101CE0000000002010B5502080F31188BFF34F8F03
:101CF000BFF36F8F01F0B6FA18B104494FF080506E
:101D00000860002080F3118810BD000004ED00E0A1
:101D100030B593B030216846FEF704FB14210CA8BF
:101D2000FEF700FB18480024016841F08051016073
:101D3000006800F0805011901448016841F440415F
:101D400001600068022500F44040119001200090DD
:101D5000000401908001CDE906500420C821CDE99E
:101D600008010A900B906846FFF73AFA0F20CDE978
:101D70000C054FF4A050CDE90E4003210CA810949F
:101D8000FFF726F913B030BD403802400070004024
:101D90001048016841F4700101600F48016841F08A
:101DA000010101600C4A00210832116002680B4BEE
:101DB0001A400260031D0A4A1A60026822F4802257
:101DC000026005480C3001600249580680390860FD
:101DD0007047000088ED00E000380240FFFFF6FE8B
:101DE000103000240148FFF7B9BB00004403002075
:101DF000F0B502681D4B1E4C9F031E4D1E4E9842AF
:101E000007D0B84205D0A04203D0A84201D0B042CA
:101E100004D122F0700C4A6842EA0C02984210D0B9
:101E2000B8420ED0A0420CD0A8420AD0B04208D08E
:101E3000124CA04205D0124CA04202D0114CA0423C
:101E400003D122F44074CA6822434C6922F0800214
:101E5000224302608A68C2620A688262984201D1A3
:101E60000969016301214161F0BD000000000140EA
:101E70000004004000080040000C00400040014009
:101E80000044014000480140FEE70907090E002810
:101E900004DB00F1E02080F80014704700F00F0030
:101EA00000F1E02080F8141D704700B52DED048B83
:101EB000B0EE409AF0EE609A83B051EC190BFEF749
:101EC00010FC41EC180B18EE100A18EE901A8DED6C
:101ED000008B002818BF0120084320F00040C0F10B
:101EE0007F6000F1E040C00F14D019EE101A19EE17
:101EF000900A8DED009B002918BF0121084320F0B6
:101F00000040C0F17F6000F1E040C00F04BF01203D
:101F100000F018F8B0EE480A03B0F0EE680ABDEC25
:101F2000048B00BD02E008C8121F08C1002AFAD1C4
:101F300070477047002001E001C1121F002AFBD149
:101F400070470000014908607047000098000020B9
:101F5000EFF30580002800D00120704790B0FEF715
:101F600087FFFFF7D5FEFFF78DFD194817490024BD
:101F700001601849C0E901144FF48041C0E90341F0
:101F800044618461C4610462FEF7E6FC0E940EA80D
:101F90000F9400F037F8104C1C221049E06168469D
:101FA000FEF7A7F90021684600F08EF80B49606142
:101FB0001C221C3107A8FEF79CF9002107A800F09D
:101FC00083F8A06100F019F8FEE70000005400401B
:101FD0009C000020A0860100000000209035000831
:101FE00001460020842900D0C81C704710B500B9F4
:101FF000012000F055FC002010BD10B500F0F0FCF1
:10200000002010BD41684FF0010009B100F0D9BDBA
:1020100000F0CCBD38B5002405460094FFF798FFCA
:1020200090B16946284600F025FF012801D0FF2025
:1020300038BD009888B10A494FF080500860BFF35E
:102040004F8FBFF36F8F08E000231A4619462846CA
:1020500000F060FE012800D0FF24204638BD0000BB
:1020600004ED00E038B505004FF0000000900FD0FF
:102070000024481C0ED001B10C46FFF769FFB8B12F
:102080006A460021284600F043FF012816D104E0EB
:10209000802038BD4FF0FF34EFE7009880B1094948
:1020A0004FF080500860BFF34F8FBFF36F8F07E092
:1020B0002146284600F07AFF012801D0FF2038BDD4
:1020C000002038BD04ED00E07FB50D4604464169AF
:1020D000B0F9080081B1A16971B1FFF781FFD4E9BE
:1020E00005128DE80700D4E900102B46226901F0A3
:1020F00080F8039004B070BDFFF772FF03A9CDE92B
:102100000001208A2B4682B2D4E9001001F044F885
:10211000012801D00020EDE70398EBE72DE9F0411D
:10212000184C0F46054666692068001D00F0CAFA83
:1021300038B9206890F82C1001208840A1698143AB
:10214000A161681C07D137B12168BDE8F0410E4894
:10215000091D00F0FBBA20683544B542456021688E
:1021600005D2A068BDE8F041091D00F0D7BA60684B
:10217000091D00F0D3FA206B854200D22563BDE82B
:10218000F081000038000020600400202DE9F041BB
:10219000054600F0E7FA2E4C2069401C20612068BB
:1021A0002C4F10B1E06940B32DE025602069012873
:1021B00029D1002606EB860007EB800000F0A0FA8C
:1021C000761C072EF6D323488C3000F099FA21486C
:1021D000A03000F095FA1F48B43000F091FA1D4885
:1021E000C83000F08DFA1B48DC3000F089FA19483D
:1021F0008C3060601430A06005E02068E96AC06A35
:10220000884200D82560E06A401CE062E96A01204B
:10221000A26988401043A06101EB810007EB8000B8
:10222000291D00F093FA00F0BDFAE06900280CD0F7
:102230002068E96AC06A884207D207494FF0805097
:102240000860BFF34F8FBFF36F8FBDE8F0810000D0
:10225000380000208403002004ED00E030B4026C5C
:102260000B46002A0BD0C1681144C1604468A142EA
:1022700001D30168C16030BC1846FEF73AB830BCE3
:1022800070472DE9F041856B174604460026026C25
:1022900082B1C7B1E068FEF72CF8E168206C091A3A
:1022A000E1602268914202D26168081AE060022F60
:1022B00016D017E02068A8B9606801F037F8064624
:1022C000002060600EE0A068FEF713F8216CA068A3
:1022D0000844A0606168884204D32068A06001E0DF
:1022E00005B16D1E6D1CA5633046BDE8F08110B5CB
:1022F000044690F8510058B101280CD002280FD0A4
:10230000502080F31188BFF34F8FBFF36F8FFEE72C
:10231000206B00F05BFA2046BDE8104000F056BA92
:1023200010BD000010484FF47051420706D0C01D88
:102330000D4920F00700411AC1F570510B4A0023E6
:102340000144C2E900030839103A21F00701116085
:102350004B600B600B1AC0E9001393604FF0004014
:102360005360D06070470000740400208400002097
:10237000144E154CA6F1C8074FF08058DFF84C906A
:1023800012E000BF00F0EEF9F068C568281D00F00B
:1023900099F92069401E2061E068401EE06000F06D
:1023A00001FA2846FFF7A3FFE0680028EAD1386861
:1023B0000128F9D9C9F80080BFF34F8FBFF36F8FA1
:1023C000F2E700004C0400203800002004ED00E09B
:1023D000002807D00021416001600B460A46C16019
:1023E00000F098BC70470346009829B10260C0E92C
:1023F0000F31012100F04ABC0060F8E72DE9F047F9
:102400009A46DDE9098481466FF00303206B03EBF4
:1024100082021044089D20F00706700707D0502064
:1024200080F31188BFF34F8FBFF36F8FFEE7231840
:102430000A5C83F834200A5C12B1401C1028F6D3E1
:10244000002784F84370072D00D30625E562C4E910
:102450001157201D00F05FF904F1180000F05BF93E
:102460002461C5F107006462A061E76484F85070DC
:1024700052464946304600F00FF92060B8F1000F8F
:1024800001D0C8F80040BDE8F087000030B5114920
:1024900000E011460A688242FBD34B685C18844214
:1024A00003D1406818444860084643681C189442A9
:1024B00009D1084C103C2468A24209D052681A4441
:1024C00042600A6812680260814200D0086030BD34
:1024D0000460F9E78400002010B5044600F042F9DA
:1024E000A06B28B15FF0000400F05CF9204610BD3D
:1024F0000124F9E706484168096829B14168C968BB
:10250000C9684968016370474FF0FF31FAE700007E
:102510003800002008484068401C4FF0500080F30D
:10252000118804D0BFF34F8FBFF36F8FFEE7BFF367
:102530004F8FBFF36F8FFEE78C0000202DE9F04135
:10254000044600F00FF994F9455004F1240609E01F
:10255000606A48B1304600F07FFF08B100F0CEF964
:102560006D1E6DB2002DF3DC4FF0FF3684F8456030
:1025700000F018F900F0F6F894F9445004F110074F
:1025800009E0206948B1384600F066FF08B100F064
:10259000B5F96D1E6DB2002DF3DC84F84460BDE822
:1025A000F04100F0FFB800002DE9F041054600279A
:1025B00000F04CFA314E306808B9FFF7B3FEF0680E
:1025C00005424BD1C5B3083568070ED005F00700AA
:1025D000C0F108000544680707D0502080F3118837
:1025E000BFF34F8FBFF36F8FFEE72DB37068854247
:1025F00034D82248103001460C6801E020460C46D1
:102600006168A94202D221680029F7D131688C4261
:1026100024D007682168016060680837411B1029D1
:102620000FD96019420708D0502080F31188BFF3FA
:102630004F8FBFF36F8FFEE710E041606560FFF7DB
:1026400025FF61687068401A7060B268904200D2DD
:10265000B060F06801430020C4E9000100F036FFDB
:10266000780707D0502080F31188BFF34F8FBFF356
:102670006F8FFEE73846BDE8F0810000740000204F
:102680000449086818B10868826C521C82640868A2
:10269000704700003800002010B5031F4FF0807411
:1026A0001C601B1F21F001011960191F044B0B60F6
:1026B00014390A60091F6FF0020244380A6010BD25
:1026C00015250008D0E9013201699A60D0E901239B
:1026D0005A604A68824201D182684A6000220261DF
:1026E0000868401E0860086870470000034B0360DC
:1026F00003F154000860802010607047F000002053
:1027000000F108014FF0FF32C0E90112C160016120
:1027100000210160704700210161704730B50B68EE
:102720005A1C02D000F1080202E0026904E02246CD
:10273000546825689D42FAD953684B6099608A6055
:10274000516008610168491C016030BD42684A60FF
:1027500093688B6093685960916008610168491CB7
:1027600001607047502080F31188BFF34F8FBFF393
:102770006F8F0A494868401C486001280CD10848FE
:10278000006810F0FF0F07D0502080F31188BFF3CE
:102790004F8FBFF36F8FFEE7704700008C00002063
:1027A00004ED00E00849486828B1401E486001D1A6
:1027B00080F311887047502080F31188BFF34F8F4A
:1027C000BFF36F8FFEE700008C00002070B500287B
:1027D00027D0144DA0F108046168E868014207D1D0
:1027E000502080F31188BFF34F8FBFF36F8FFEE748
:1027F00022683AB1502080F31188BFF34F8FBFF3A6
:102800006F8FFEE78143616000F020F960686968BE
:10281000084468602046FFF739FEBDE8704000F0CC
:1028200055BE70BD740000204FF0E0200021016112
:10283000816105494FF47A720968B1FBF2F1491ED2
:1028400041610721016170473400002010B5FDF798
:1028500009FD114910280ED300F1E02090F8F00393
:102860000A78904207D2502080F31188BFF34F8F2F
:10287000BFF36F8FFEE709480068896800F4E060E5
:10288000884207D9502080F31188BFF34F8FBFF3E0
:102890006F8FFEE710BD00008C0000200CED00E003
:1028A00010B5020014D00F48806B38B1502080F36F
:1028B0001188BFF34F8FBFF36F8FFEE700F0C6F8AC
:1028C00000211046FFF72AFC00F000FE002807D187
:1028D00005494FF080500860BFF34F8FBFF36F8FF3
:1028E00010BD00003800002004ED00E002498A6AB3
:1028F00002604969416070473800002001490120A9
:10290000486270473800002010B50C4650B10949A4
:1029100009681831FFF702FF2046BDE81040012189
:10292000FFF7FCBB502080F31188BFF34F8FBFF33C
:102930006F8FFEE73800002070B504004BD0A26C0A
:10294000A2B1606C884200D30146E06A884242D05E
:10295000012A40D1204D2A6894420FD1502080F3A3
:102960001188BFF34F8FBFF36F8FFEE7502080F3C6
:102970001188BFF34F8FBFF36F8FFEE7E162A2694B
:10298000002A02DBC1F10701A161144E00EB8000B7
:10299000616906EB800081421DD1201DFFF792FE88
:1029A000012150B9E06A00EB800256F8222022B9DA
:1029B000AA6901FA00F08243AA61E06AAA6981402B
:1029C0001143A96100EB800006EB8000211DBDE8EA
:1029D0007040FFF7BBBE70BD3800002084030020AC
:1029E00010B586B00024039405AA04A903A8049492
:1029F000FFF77CFEDDE903010094CDE9011000231F
:102A00000EA11048059A00F0F4FB0F490028486316
:102A100011D0502080F31188BFF34F8FBFF36F8F19
:102A20004FF0FF3008630120C8614C6106B0BDE87B
:102A3000104000F041B806B010BD000049444C45BC
:102A40000000000071230008380000200248816B5C
:102A5000491C816370470000380000201448816BD6
:102A600011B1012141627047002141628169B1FACF
:102A700081F1C1F11F0101EB81020E4951F82230B1
:102A80006BB101EB820101F108034A6852684A60A8
:102A90009A4201D152684A60D16801607047502063
:102AA00080F31188BFF34F8FBFF36F8FFEE70000F5
:102AB00038000020840300201CB537480168374ADD
:102AC000914207D1502080F31188BFF34F8FBFF39D
:102AD0006F8FFEE700683149491E884207D15020B8
:102AE00080F31188BFF34F8FBFF36F8FFEE72C4940
:102AF00008780190FF20087008788DF800009DF894
:102B000000009DF8002000F0F000904207D0502017
:102B100080F31188BFF34F8FBFF36F8FFEE79DF8EF
:102B20000000204B00F0500018700720986005E06E
:102B30009DF8002052008DF80020401E9DF80020D6
:102B40001206F5D49860032807D0502080F311882E
:102B5000BFF34F8FBFF36F8FFEE74FF44070986065
:102B6000019808700C482030016841F47001016040
:102B7000016841F070410160FFF756FE0020586087
:102B8000FDF738FB0848016841F040410160FDF75E
:102B90001DFB00201CBD000000ED00E071C20F41D4
:102BA00000E400E08C00002034EF00E010B50246A5
:102BB0000021012000F012F80446FFF709FC20462E
:102BC00010BD38B50B46002200901146012000F0E0
:102BD00029F80446FFF7FCFB204638BDF8B5174638
:102BE0000E46050014D0DEB105FB06F04830FFF7B5
:102BF000DBFC04000AD0002084F8460004F14802FF
:102C00003B46314628460094FFF7EDFB2046F8BDD1
:102C1000502080F31188BFF34F8FBFF36F8FFEE713
:102C20000020E3E738B5049D18B153B1CAB181B1B2
:102C300020E0502080F31188BFF34F8FBFF36F8FD8
:102C4000FEE7502080F31188BFF34F8FBFF36F8FE3
:102C5000FEE7502080F31188BFF34F8FBFF36F8FD3
:102C6000FEE739B1502080F31188BFF34F8FBFF3D7
:102C70006F8FFEE748241C46012384F846302B461C
:102C80000094FFF7B0FB204638BD000070B50D463C
:102C9000040025D0FFF766FDD4E90F20216802FB70
:102CA000001161600021A1632168A1600A46D4E996
:102CB0000F01401E00FB0121E16021464FF0FF3073
:102CC00001F8440F487004F110008DB1FFF718FDB2
:102CD00004F12400FFF714FDFFF764FD012070BD2F
:102CE000502080F31188BFF34F8FBFF36F8FFEE743
:102CF00021690029F0D000F0AFFB0028ECD0044996
:102D00004FF080500860BFF34F8FBFF36F8FE3E742
:102D100004ED00E02DE9FF4782B01D468A464FF0E2
:102D20000008040003D0BAF1000F08D011E05020D1
:102D300080F31188BFF34F8FBFF36F8FFEE7206CD6
:102D400038B1502080F31188BFF34F8FBFF36F8FDE
:102D5000FEE7022D0AD1E06B012807D0502080F356
:102D60001188BFF34F8FBFF36F8FFEE700F06CFA4F
:102D70003F4F4FF000094FF0805648B9049838B1E2
:102D8000502080F31188BFF34F8FBFF36F8FFEE7A2
:102D9000FFF7E8FCA06BE16B884207D3022D05D05A
:102DA0000498D0B1B8F1000F1AD01EE02A4651465F
:102DB0002046FFF766FA616A19B104F1240000F0B9
:102DC0004BFB20B13E60BFF34F8FBFF36F8FFFF718
:102DD000E9FC012006B0BDE8F087FFF7E3FC22E044
:102DE0006846FFF783FD4FF00108FFF7DBFCFFF7B4
:102DF0002DFEFFF7B7FC94F94400401C01D184F884
:102E0000449094F94500401C01D184F84590FFF7A7
:102E1000C9FC04A9684600F085F930B12046FFF7E7
:102E20008DFB00F053FB0020D4E7FFF79BFCA06B69
:102E3000E16B884213D1FFF7B5FC04F1100004994F
:102E4000FFF762FD2046FFF779FB00F03FFB00280B
:102E50009ED13E60BFF34F8FBFF36F8F98E7FFF7B0
:102E6000A1FC2046FFF76AFB00F030FB90E7000072
:102E700004ED00E070B50E46040009D0206C78B176
:102E8000502080F31188BFF34F8FBFF36F8FFEE7A1
:102E9000502080F31188BFF34F8FBFF36F8FFEE791
:102EA000206848B9606838B1502080F31188BFF3BA
:102EB0004F8FBFF36F8FFEE7FFF7C8FC5020EFF393
:102EC000118580F31188BFF34F8FBFF36F8FA16B14
:102ED000E06B884218D994F94500491CA163411C54
:102EE00004D0401C84F8450001200EE0606A0028F0
:102EF000FAD004F1240000F0AFFA0028F4D0002E3C
:102F0000F2D001203060EFE7002085F3118870BD1A
:102F10002DE9F04790468946040003D0B9F1000F2F
:102F200008D011E0502080F31188BFF34F8FBFF31A
:102F30006F8FFEE7206C38B1502080F31188BFF30B
:102F40004F8FBFF36F8FFEE7FFF780FC5020EFF34A
:102F5000118680F31188BFF34F8FBFF36F8FA76B7C
:102F6000F7B194F9445049462046FFF777F97F1EA0
:102F7000A763681C04D06D1C84F84450012010E045
:102F800020690028FAD004F1100000F065FA00284A
:102F9000F4D0B8F1000FF1D00121C8F80010EDE72E
:102FA000002086F31188BDE8F08700002DE9F34387
:102FB000002683B00400354609D0206C78B150203B
:102FC00080F31188BFF34F8FBFF36F8FFEE7502060
:102FD00080F31188BFF34F8FBFF36F8FFEE700F0D0
:102FE00033F9DFF83C814FF000094FF0805748B9C2
:102FF000049838B1502080F31188BFF34F8FBFF38E
:103000006F8FFEE7FFF7AEFBA06BC8B1401EA06359
:10301000206810B9FFF734FB6060206950B104F1FB
:10302000100000F019FA28B1C8F80070BFF34F8FF4
:10303000BFF36F8FFFF7B6FB012005B0BDE8F0834B
:10304000049808B166B10FE03DB1502080F31188BB
:10305000BFF34F8FBFF36F8FFEE7FFF7A3FB5DE07A
:103060006846FFF743FC0126FFF79CFBFFF7EEFCE9
:10307000FFF778FB94F94400401C01D184F8449098
:1030800094F94500401C01D184F84590FFF78AFB74
:1030900004A9684600F046F80028204612D0FFF741
:1030A0004DFA00F013FA2046FFF716FA0028A9D0CF
:1030B0009DB3FFF757FB606A50B3206B0068C0F107
:1030C000070126E0FFF708FAE0B1206838B9FFF7FA
:1030D00049FB606800F076F90546FFF763FB04F1F1
:1030E00024000499FFF710FC2046FFF727FA00F0B0
:1030F000EDF9002886D1C8F80070BFF34F8FBFF3F9
:103100006F8F7FE72046FFF719FA00F0DFF979E7C4
:1031100000216068FFF710FC9FE7FFE700208CE7C5
:1031200004ED00E02DE9F0410C46050011D0C4B1DA
:10313000FFF718FB174B5A696E682068911B471CF4
:1031400017D02F689B6A9F4219D0964217D8012446
:1031500010E0502080F31188BFF34F8FBFF36F8FC3
:10316000FEE7502080F31188BFF34F8FBFF36F8FBE
:10317000FEE70024FFF716FB2046BDE8F0818842F9
:1031800005D9401A20602846FFF7B0FBF1E7002080
:103190002060DCE7380000202DE9FF5F8346DDE991
:1031A0000E87994616468A469000FFF7FDF90500FE
:1031B0001CD05420FFF7F8F9040014D00020256338
:1031C00084F85100CDE90240CDE900874B463246F4
:1031D00051465846FFF712F92046FEF7D7FF012067
:1031E00004B0BDE8F09F2846FFF7F0FA4FF0FF303B
:1031F000F6E7F0B585B0DDE90B640A9DA6B1DCB158
:10320000542700972663022684F85160002604AFF5
:10321000CDE90246CDE90057FFF7F0F82046FEF76A
:10322000B5FF049805B0F0BD502080F31188BFF3BE
:103230004F8FBFF36F8FFEE7502080F31188BFF3ED
:103240004F8FBFF36F8FFEE70548C16919B1806BDF
:1032500018B100207047012070470220704700001D
:10326000380000202DE9F0412E4C0027A06B40B122
:10327000206A401C2062606A00B101273846BDE820
:10328000F0816669761C666113D16068006838B1A8
:10329000502080F31188BFF34F8FBFF36F8FFEE78D
:1032A0006068A1686160A060A06A401CA062FFF72E
:1032B00021F9206BDFF87080864209D360680068CE
:1032C00080B16068C068C568686886420DD22063B6
:1032D0002068C06A00EB800158F821000128CAD993
:1032E0000127C8E74FF0FF30F1E7281DFFF7EAF9A3
:1032F000A86A18B105F11800FFF7E4F9E86A01219E
:10330000A26981401143A16100EB800108EB8100BB
:10331000291DFFF71BFAE86A2168C96A8842CDD3E4
:103320000127CBE7380000208403002070B504009B
:103330004FF0000140D0214D2868844207D0502032
:1033400080F31188BFF34F8FBFF36F8FFEE7A06C40
:1033500038B1401EA064636CE26A9A422CD040B13E
:103360002AE0502080F31188BFF34F8FBFF36F8F97
:10337000FEE7201DFFF7A6F9114A012150B9E06AC6
:1033800000EB800352F8233023B9AB6901FA00F057
:103390008343AB61606CE062C0F10700A061E06A4A
:1033A000AB6981401943A96100EB800002EB80000A
:1033B000211DFFF7CBF90121084670BD3800002020
:1033C0008403002070B504004FF0000038D0204D79
:1033D000E16A2A68D26A914233D2A069002804DBEC
:1033E0002868C06AC0F10700A0611A4E01EB810194
:1033F000606906EB810188421ED1201DFFF762F94A
:10340000012150B9E06A00EB800256F8222022B96F
:10341000AA6901FA00F08243AA612868C06AE062E2
:10342000AA6981401143A96100EB800006EB80008E
:10343000211DFFF78BF902E02868C06AE0620120D5
:1034400070BD616C2A68D26A9142F8D370BD0000E9
:1034500038000020840300202DE9F041C068C468D2
:10346000ACB104F118000746FFF72CF9154DA86B15
:103470000126A0B139461448FFF768F9E06A2968C7
:10348000C96A88421CD901206E62BDE8F0815020D3
:1034900080F31188BFF34F8FBFF36F8FFEE7201DBE
:1034A000FFF710F9E16AAA6906FA01F01043A86172
:1034B00001EB81000449B43901EB8000211DDBE7F9
:1034C0000020E2E738000020380400202DE9F04712
:1034D0002C4D00242746A86B38B1FFF743F9A86BA1
:1034E000401EA863A86B40B146E0502080F31188CD
:1034F000BFF34F8FBFF36F8FFEE72969224E012084
:10350000D1B3A6F1B40980463068E8B1F068C46868
:1035100004F11800FFF7D6F8201DFFF7D3F8E06A92
:10352000AA6908FA00F11143A96100EB800109EBD7
:103530008100211DFFF70AF9E06A2968C96A8842FB
:10354000E2D3C5F82480DFE70CB1FEF7D3FF2C6A85
:1035500044B14646FFF786FE00B16E62641EF9D1A3
:1035600000202862686A38B10849012738070860D6
:10357000BFF34F8FBFF36F8FFFF714F93846BDE8E5
:10358000F0870000380000203804002004ED00E03F
:10359000EC350008091B00080200000000000000D4
:1035A000800000000000000000000000E03500087E
:1035B000951C0008FEFF00000000000080000000D5
:1035C00000000000000000000000000000000000FB
:1035D00001020304060708090000000001020304B9
:1035E0006D795461736B3032000000006465666170
:1035F000756C745461736B0018360008000000206D
:103600009C000000241F0008B43600089C00002025
:10361000DC430000341F0008000000000000000030
:10362000000000000000000000000000000000009A
:10363000000000000000000000000000000000008A
:103640000100000010000000000000000024F40051
:10365000000000000000000000000000000000006A
:10366000000000000000000000000000000000005A
:10367000000000000000000000000000000000004A
:10368000000000000000000000000000000000003A
:10369000000000000000000000000000000000002A
:1036A0000000000000000000AAAAAAAA0000000072
:0436B0000000000016
:040000050800019955
:00000001FF
